{
  "contractName": "DAO",
  "abi": [
    {
      "inputs": [
        {
          "internalType": "uint256",
          "name": "_contributionTimeEnd",
          "type": "uint256"
        },
        {
          "internalType": "uint256",
          "name": "_voteTime",
          "type": "uint256"
        },
        {
          "internalType": "uint256",
          "name": "_quorum",
          "type": "uint256"
        }
      ],
      "stateMutability": "nonpayable",
      "type": "constructor"
    },
    {
      "inputs": [],
      "name": "availableFunds",
      "outputs": [
        {
          "internalType": "uint256",
          "name": "",
          "type": "uint256"
        }
      ],
      "stateMutability": "view",
      "type": "function",
      "constant": true
    },
    {
      "inputs": [],
      "name": "contributionTimeEnd",
      "outputs": [
        {
          "internalType": "uint256",
          "name": "",
          "type": "uint256"
        }
      ],
      "stateMutability": "view",
      "type": "function",
      "constant": true
    },
    {
      "inputs": [
        {
          "internalType": "uint256",
          "name": "",
          "type": "uint256"
        }
      ],
      "name": "investorsList",
      "outputs": [
        {
          "internalType": "address",
          "name": "",
          "type": "address"
        }
      ],
      "stateMutability": "view",
      "type": "function",
      "constant": true
    },
    {
      "inputs": [
        {
          "internalType": "address",
          "name": "",
          "type": "address"
        },
        {
          "internalType": "uint256",
          "name": "",
          "type": "uint256"
        }
      ],
      "name": "isVoted",
      "outputs": [
        {
          "internalType": "bool",
          "name": "",
          "type": "bool"
        }
      ],
      "stateMutability": "view",
      "type": "function",
      "constant": true
    },
    {
      "inputs": [],
      "name": "manager",
      "outputs": [
        {
          "internalType": "address",
          "name": "",
          "type": "address"
        }
      ],
      "stateMutability": "view",
      "type": "function",
      "constant": true
    },
    {
      "inputs": [],
      "name": "nextProposalId",
      "outputs": [
        {
          "internalType": "uint256",
          "name": "",
          "type": "uint256"
        }
      ],
      "stateMutability": "view",
      "type": "function",
      "constant": true
    },
    {
      "inputs": [
        {
          "internalType": "address",
          "name": "",
          "type": "address"
        }
      ],
      "name": "numOfshares",
      "outputs": [
        {
          "internalType": "uint256",
          "name": "",
          "type": "uint256"
        }
      ],
      "stateMutability": "view",
      "type": "function",
      "constant": true
    },
    {
      "inputs": [
        {
          "internalType": "uint256",
          "name": "",
          "type": "uint256"
        }
      ],
      "name": "proposals",
      "outputs": [
        {
          "internalType": "uint256",
          "name": "id",
          "type": "uint256"
        },
        {
          "internalType": "string",
          "name": "description",
          "type": "string"
        },
        {
          "internalType": "uint256",
          "name": "amount",
          "type": "uint256"
        },
        {
          "internalType": "address payable",
          "name": "receipient",
          "type": "address"
        },
        {
          "internalType": "uint256",
          "name": "votes",
          "type": "uint256"
        },
        {
          "internalType": "uint256",
          "name": "end",
          "type": "uint256"
        },
        {
          "internalType": "bool",
          "name": "isExecuted",
          "type": "bool"
        }
      ],
      "stateMutability": "view",
      "type": "function",
      "constant": true
    },
    {
      "inputs": [],
      "name": "quorum",
      "outputs": [
        {
          "internalType": "uint256",
          "name": "",
          "type": "uint256"
        }
      ],
      "stateMutability": "view",
      "type": "function",
      "constant": true
    },
    {
      "inputs": [],
      "name": "totalShares",
      "outputs": [
        {
          "internalType": "uint256",
          "name": "",
          "type": "uint256"
        }
      ],
      "stateMutability": "view",
      "type": "function",
      "constant": true
    },
    {
      "inputs": [],
      "name": "voteTime",
      "outputs": [
        {
          "internalType": "uint256",
          "name": "",
          "type": "uint256"
        }
      ],
      "stateMutability": "view",
      "type": "function",
      "constant": true
    },
    {
      "inputs": [],
      "name": "contribution",
      "outputs": [],
      "stateMutability": "payable",
      "type": "function",
      "payable": true
    },
    {
      "inputs": [
        {
          "internalType": "uint256",
          "name": "amount",
          "type": "uint256"
        }
      ],
      "name": "reedemShare",
      "outputs": [],
      "stateMutability": "nonpayable",
      "type": "function"
    },
    {
      "inputs": [
        {
          "internalType": "uint256",
          "name": "amount",
          "type": "uint256"
        },
        {
          "internalType": "address",
          "name": "to",
          "type": "address"
        }
      ],
      "name": "transferShare",
      "outputs": [],
      "stateMutability": "nonpayable",
      "type": "function"
    },
    {
      "inputs": [
        {
          "internalType": "string",
          "name": "description",
          "type": "string"
        },
        {
          "internalType": "uint256",
          "name": "amount",
          "type": "uint256"
        },
        {
          "internalType": "address payable",
          "name": "receipient",
          "type": "address"
        }
      ],
      "name": "createProposal",
      "outputs": [],
      "stateMutability": "nonpayable",
      "type": "function"
    },
    {
      "inputs": [
        {
          "internalType": "uint256",
          "name": "proposalId",
          "type": "uint256"
        }
      ],
      "name": "voteProposal",
      "outputs": [],
      "stateMutability": "nonpayable",
      "type": "function"
    },
    {
      "inputs": [
        {
          "internalType": "uint256",
          "name": "proposalId",
          "type": "uint256"
        }
      ],
      "name": "executeProposal",
      "outputs": [],
      "stateMutability": "nonpayable",
      "type": "function"
    },
    {
      "inputs": [],
      "name": "ProposalList",
      "outputs": [
        {
          "components": [
            {
              "internalType": "uint256",
              "name": "id",
              "type": "uint256"
            },
            {
              "internalType": "string",
              "name": "description",
              "type": "string"
            },
            {
              "internalType": "uint256",
              "name": "amount",
              "type": "uint256"
            },
            {
              "internalType": "address payable",
              "name": "receipient",
              "type": "address"
            },
            {
              "internalType": "uint256",
              "name": "votes",
              "type": "uint256"
            },
            {
              "internalType": "uint256",
              "name": "end",
              "type": "uint256"
            },
            {
              "internalType": "bool",
              "name": "isExecuted",
              "type": "bool"
            }
          ],
          "internalType": "struct DAO.Proposal[]",
          "name": "",
          "type": "tuple[]"
        }
      ],
      "stateMutability": "view",
      "type": "function",
      "constant": true
    },
    {
      "inputs": [],
      "name": "InvestorList",
      "outputs": [
        {
          "internalType": "address[]",
          "name": "",
          "type": "address[]"
        }
      ],
      "stateMutability": "view",
      "type": "function",
      "constant": true
    }
  ],
  "bytecode": "0x60806040523480156200001157600080fd5b506040516200295a3803806200295a833981810160405281019062000037919062000136565b600081118015620000485750606481105b6200008a576040517f08c379a00000000000000000000000000000000000000000000000000000000081526004016200008190620001f3565b60405180910390fd5b824262000098919062000244565b6007819055508160098190555080600a8190555033600b60006101000a81548173ffffffffffffffffffffffffffffffffffffffff021916908373ffffffffffffffffffffffffffffffffffffffff160217905550505050620002a1565b600080fd5b6000819050919050565b6200011081620000fb565b81146200011c57600080fd5b50565b600081519050620001308162000105565b92915050565b600080600060608486031215620001525762000151620000f6565b5b600062000162868287016200011f565b935050602062000175868287016200011f565b925050604062000188868287016200011f565b9150509250925092565b600082825260208201905092915050565b7f4e6f742076616c69642076616c75657300000000000000000000000000000000600082015250565b6000620001db60108362000192565b9150620001e882620001a3565b602082019050919050565b600060208201905081810360008301526200020e81620001cc565b9050919050565b7f4e487b7100000000000000000000000000000000000000000000000000000000600052601160045260246000fd5b60006200025182620000fb565b91506200025e83620000fb565b9250827fffffffffffffffffffffffffffffffffffffffffffffffffffffffffffffffff0382111562000296576200029562000215565b5b828201905092915050565b6126a980620002b16000396000f3fe6080604052600436106101145760003560e01c806350520b1f116100a0578063afc8275b11610064578063afc8275b14610386578063bcf93dd6146103b1578063c1188cff146103dc578063df18b7f414610405578063e65da4291461043057610114565b806350520b1f146102c25780636ac1e01f146102cc5780636dfc1099146102f5578063807896d5146103205780638ee36f051461034957610114565b80632ab09d14116100e75780632ab09d14146101d95780632ccc8727146102045780633a98ef391461024157806346fcff4c1461026c578063481c6a751461029757610114565b8063013cf08b14610119578063039383e61461015c5780630d61b519146101855780631703a018146101ae575b600080fd5b34801561012557600080fd5b50610140600480360381019061013b91906118cc565b61046d565b60405161015397969594939291906119fd565b60405180910390f35b34801561016857600080fd5b50610183600480360381019061017e9190611ab1565b610564565b005b34801561019157600080fd5b506101ac60048036038101906101a791906118cc565b6108c7565b005b3480156101ba57600080fd5b506101c3610a40565b6040516101d09190611af1565b60405180910390f35b3480156101e557600080fd5b506101ee610a46565b6040516101fb9190611af1565b60405180910390f35b34801561021057600080fd5b5061022b600480360381019061022691906118cc565b610a4c565b6040516102389190611b1b565b60405180910390f35b34801561024d57600080fd5b50610256610a8b565b6040516102639190611af1565b60405180910390f35b34801561027857600080fd5b50610281610a91565b60405161028e9190611af1565b60405180910390f35b3480156102a357600080fd5b506102ac610a97565b6040516102b99190611b1b565b60405180910390f35b6102ca610abd565b005b3480156102d857600080fd5b506102f360048036038101906102ee9190611bc7565b610cc1565b005b34801561030157600080fd5b5061030a610f18565b6040516103179190611e10565b60405180910390f35b34801561032c57600080fd5b50610347600480360381019061034291906118cc565b611103565b005b34801561035557600080fd5b50610370600480360381019061036b9190611e32565b6113b6565b60405161037d9190611e72565b60405180910390f35b34801561039257600080fd5b5061039b6113e5565b6040516103a89190611af1565b60405180910390f35b3480156103bd57600080fd5b506103c66113eb565b6040516103d39190611af1565b60405180910390f35b3480156103e857600080fd5b5061040360048036038101906103fe91906118cc565b6113f1565b005b34801561041157600080fd5b5061041a6116a3565b6040516104279190611f4b565b60405180910390f35b34801561043c57600080fd5b5061045760048036038101906104529190611f6d565b611731565b6040516104649190611af1565b60405180910390f35b600460205280600052604060002060009150905080600001549080600101805461049690611fc9565b80601f01602080910402602001604051908101604052809291908181526020018280546104c290611fc9565b801561050f5780601f106104e45761010080835404028352916020019161050f565b820191906000526020600020905b8154815290600101906020018083116104f257829003601f168201915b5050505050908060020154908060030160009054906101000a900473ffffffffffffffffffffffffffffffffffffffff16908060040154908060050154908060060160009054906101000a900460ff16905087565b600115156000803373ffffffffffffffffffffffffffffffffffffffff1673ffffffffffffffffffffffffffffffffffffffff16815260200190815260200160002060009054906101000a900460ff161515146105f6576040517f08c379a00000000000000000000000000000000000000000000000000000000081526004016105ed90612047565b60405180910390fd5b81600654101561063b576040517f08c379a0000000000000000000000000000000000000000000000000000000008152600401610632906120b3565b60405180910390fd5b81600160003373ffffffffffffffffffffffffffffffffffffffff1673ffffffffffffffffffffffffffffffffffffffff1681526020019081526020016000205410156106bd576040517f08c379a00000000000000000000000000000000000000000000000000000000081526004016106b49061211f565b60405180910390fd5b81600160003373ffffffffffffffffffffffffffffffffffffffff1673ffffffffffffffffffffffffffffffffffffffff168152602001908152602001600020600082825461070c919061216e565b925050819055506000600160003373ffffffffffffffffffffffffffffffffffffffff1673ffffffffffffffffffffffffffffffffffffffff1681526020019081526020016000205414156107b35760008060003373ffffffffffffffffffffffffffffffffffffffff1673ffffffffffffffffffffffffffffffffffffffff16815260200190815260200160002060006101000a81548160ff0219169083151502179055505b81600160008373ffffffffffffffffffffffffffffffffffffffff1673ffffffffffffffffffffffffffffffffffffffff168152602001908152602001600020600082825461080291906121a2565b9250508190555060016000808373ffffffffffffffffffffffffffffffffffffffff1673ffffffffffffffffffffffffffffffffffffffff16815260200190815260200160002060006101000a81548160ff0219169083151502179055506003819080600181540180825580915050600190039060005260206000200160009091909190916101000a81548173ffffffffffffffffffffffffffffffffffffffff021916908373ffffffffffffffffffffffffffffffffffffffff1602179055505050565b3373ffffffffffffffffffffffffffffffffffffffff16600b60009054906101000a900473ffffffffffffffffffffffffffffffffffffffff1673ffffffffffffffffffffffffffffffffffffffff1614610957576040517f08c379a000000000000000000000000000000000000000000000000000000000815260040161094e90612244565b60405180910390fd5b6000600460008381526020019081526020016000209050600a54600554606483600401546109859190612264565b61098f91906122ed565b10156109d0576040517f08c379a00000000000000000000000000000000000000000000000000000000081526004016109c79061236a565b60405180910390fd5b60018160060160006101000a81548160ff021916908315150217905550806002015460066000828254610a03919061216e565b92505081905550610a3c81600201548260030160009054906101000a900473ffffffffffffffffffffffffffffffffffffffff16611749565b5050565b600a5481565b60085481565b60038181548110610a5c57600080fd5b906000526020600020016000915054906101000a900473ffffffffffffffffffffffffffffffffffffffff1681565b60055481565b60065481565b600b60009054906101000a900473ffffffffffffffffffffffffffffffffffffffff1681565b426007541015610b02576040517f08c379a0000000000000000000000000000000000000000000000000000000008152600401610af9906123d6565b60405180910390fd5b60003411610b45576040517f08c379a0000000000000000000000000000000000000000000000000000000008152600401610b3c90612442565b60405180910390fd5b60016000803373ffffffffffffffffffffffffffffffffffffffff1673ffffffffffffffffffffffffffffffffffffffff16815260200190815260200160002060006101000a81548160ff02191690831515021790555034600160003373ffffffffffffffffffffffffffffffffffffffff1673ffffffffffffffffffffffffffffffffffffffff16815260200190815260200160002054610be791906121a2565b600160003373ffffffffffffffffffffffffffffffffffffffff1673ffffffffffffffffffffffffffffffffffffffff168152602001908152602001600020819055503460056000828254610c3c91906121a2565b925050819055503460066000828254610c5591906121a2565b925050819055506003339080600181540180825580915050600190039060005260206000200160009091909190916101000a81548173ffffffffffffffffffffffffffffffffffffffff021916908373ffffffffffffffffffffffffffffffffffffffff160217905550565b3373ffffffffffffffffffffffffffffffffffffffff16600b60009054906101000a900473ffffffffffffffffffffffffffffffffffffffff1673ffffffffffffffffffffffffffffffffffffffff1614610d51576040517f08c379a0000000000000000000000000000000000000000000000000000000008152600401610d4890612244565b60405180910390fd5b816006541015610d96576040517f08c379a0000000000000000000000000000000000000000000000000000000008152600401610d8d906120b3565b60405180910390fd5b6040518060e00160405280600854815260200185858080601f016020809104026020016040519081016040528093929190818152602001838380828437600081840152601f19601f8201169050808301925050505050505081526020018381526020018273ffffffffffffffffffffffffffffffffffffffff1681526020016000815260200160095442610e2a91906121a2565b815260200160001515815250600460006008548152602001908152602001600020600082015181600001556020820151816001019080519060200190610e71929190611794565b506040820151816002015560608201518160030160006101000a81548173ffffffffffffffffffffffffffffffffffffffff021916908373ffffffffffffffffffffffffffffffffffffffff1602179055506080820151816004015560a0820151816005015560c08201518160060160006101000a81548160ff02191690831515021790555090505060086000815480929190610f0d90612462565b919050555050505050565b6060600060085467ffffffffffffffff811115610f3857610f376124ab565b5b604051908082528060200260200182016040528015610f7157816020015b610f5e61181a565b815260200190600190039081610f565790505b50905060005b6008548110156110fb57600460008281526020019081526020016000206040518060e001604052908160008201548152602001600182018054610fb990611fc9565b80601f0160208091040260200160405190810160405280929190818152602001828054610fe590611fc9565b80156110325780601f1061100757610100808354040283529160200191611032565b820191906000526020600020905b81548152906001019060200180831161101557829003601f168201915b50505050508152602001600282015481526020016003820160009054906101000a900473ffffffffffffffffffffffffffffffffffffffff1673ffffffffffffffffffffffffffffffffffffffff1673ffffffffffffffffffffffffffffffffffffffff16815260200160048201548152602001600582015481526020016006820160009054906101000a900460ff1615151515815250508282815181106110dd576110dc6124da565b5b602002602001018190525080806110f390612462565b915050610f77565b508091505090565b600115156000803373ffffffffffffffffffffffffffffffffffffffff1673ffffffffffffffffffffffffffffffffffffffff16815260200190815260200160002060009054906101000a900460ff16151514611195576040517f08c379a000000000000000000000000000000000000000000000000000000000815260040161118c90612047565b60405180910390fd5b600060046000838152602001908152602001600020905060001515600260003373ffffffffffffffffffffffffffffffffffffffff1673ffffffffffffffffffffffffffffffffffffffff168152602001908152602001600020600084815260200190815260200160002060009054906101000a900460ff16151514611250576040517f08c379a00000000000000000000000000000000000000000000000000000000081526004016112479061257b565b60405180910390fd5b4281600501541015611297576040517f08c379a000000000000000000000000000000000000000000000000000000000815260040161128e906125e7565b60405180910390fd5b600015158160060160009054906101000a900460ff161515146112ef576040517f08c379a00000000000000000000000000000000000000000000000000000000081526004016112e690612653565b60405180910390fd5b6001600260003373ffffffffffffffffffffffffffffffffffffffff1673ffffffffffffffffffffffffffffffffffffffff168152602001908152602001600020600084815260200190815260200160002060006101000a81548160ff021916908315150217905550600160003373ffffffffffffffffffffffffffffffffffffffff1673ffffffffffffffffffffffffffffffffffffffff168152602001908152602001600020548160040160008282546113ab91906121a2565b925050819055505050565b60026020528160005260406000206020528060005260406000206000915091509054906101000a900460ff1681565b60075481565b60095481565b600115156000803373ffffffffffffffffffffffffffffffffffffffff1673ffffffffffffffffffffffffffffffffffffffff16815260200190815260200160002060009054906101000a900460ff16151514611483576040517f08c379a000000000000000000000000000000000000000000000000000000000815260040161147a90612047565b60405180910390fd5b80600160003373ffffffffffffffffffffffffffffffffffffffff1673ffffffffffffffffffffffffffffffffffffffff168152602001908152602001600020541015611505576040517f08c379a00000000000000000000000000000000000000000000000000000000081526004016114fc9061211f565b60405180910390fd5b80600654101561154a576040517f08c379a0000000000000000000000000000000000000000000000000000000008152600401611541906120b3565b60405180910390fd5b80600160003373ffffffffffffffffffffffffffffffffffffffff1673ffffffffffffffffffffffffffffffffffffffff1681526020019081526020016000206000828254611599919061216e565b925050819055506000600160003373ffffffffffffffffffffffffffffffffffffffff1673ffffffffffffffffffffffffffffffffffffffff1681526020019081526020016000205414156116405760008060003373ffffffffffffffffffffffffffffffffffffffff1673ffffffffffffffffffffffffffffffffffffffff16815260200190815260200160002060006101000a81548160ff0219169083151502179055505b8060066000828254611652919061216e565b925050819055503373ffffffffffffffffffffffffffffffffffffffff166108fc829081150290604051600060405180830381858888f1935050505015801561169f573d6000803e3d6000fd5b5050565b6060600380548060200260200160405190810160405280929190818152602001828054801561172757602002820191906000526020600020905b8160009054906101000a900473ffffffffffffffffffffffffffffffffffffffff1673ffffffffffffffffffffffffffffffffffffffff16815260200190600101908083116116dd575b5050505050905090565b60016020528060005260406000206000915090505481565b8073ffffffffffffffffffffffffffffffffffffffff166108fc839081150290604051600060405180830381858888f1935050505015801561178f573d6000803e3d6000fd5b505050565b8280546117a090611fc9565b90600052602060002090601f0160209004810192826117c25760008555611809565b82601f106117db57805160ff1916838001178555611809565b82800160010185558215611809579182015b828111156118085782518255916020019190600101906117ed565b5b509050611816919061186f565b5090565b6040518060e00160405280600081526020016060815260200160008152602001600073ffffffffffffffffffffffffffffffffffffffff16815260200160008152602001600081526020016000151581525090565b5b80821115611888576000816000905550600101611870565b5090565b600080fd5b600080fd5b6000819050919050565b6118a981611896565b81146118b457600080fd5b50565b6000813590506118c6816118a0565b92915050565b6000602082840312156118e2576118e161188c565b5b60006118f0848285016118b7565b91505092915050565b61190281611896565b82525050565b600081519050919050565b600082825260208201905092915050565b60005b83811015611942578082015181840152602081019050611927565b83811115611951576000848401525b50505050565b6000601f19601f8301169050919050565b600061197382611908565b61197d8185611913565b935061198d818560208601611924565b61199681611957565b840191505092915050565b600073ffffffffffffffffffffffffffffffffffffffff82169050919050565b60006119cc826119a1565b9050919050565b6119dc816119c1565b82525050565b60008115159050919050565b6119f7816119e2565b82525050565b600060e082019050611a12600083018a6118f9565b8181036020830152611a248189611968565b9050611a3360408301886118f9565b611a4060608301876119d3565b611a4d60808301866118f9565b611a5a60a08301856118f9565b611a6760c08301846119ee565b98975050505050505050565b6000611a7e826119a1565b9050919050565b611a8e81611a73565b8114611a9957600080fd5b50565b600081359050611aab81611a85565b92915050565b60008060408385031215611ac857611ac761188c565b5b6000611ad6858286016118b7565b9250506020611ae785828601611a9c565b9150509250929050565b6000602082019050611b0660008301846118f9565b92915050565b611b1581611a73565b82525050565b6000602082019050611b306000830184611b0c565b92915050565b600080fd5b600080fd5b600080fd5b60008083601f840112611b5b57611b5a611b36565b5b8235905067ffffffffffffffff811115611b7857611b77611b3b565b5b602083019150836001820283011115611b9457611b93611b40565b5b9250929050565b611ba4816119c1565b8114611baf57600080fd5b50565b600081359050611bc181611b9b565b92915050565b60008060008060608587031215611be157611be061188c565b5b600085013567ffffffffffffffff811115611bff57611bfe611891565b5b611c0b87828801611b45565b94509450506020611c1e878288016118b7565b9250506040611c2f87828801611bb2565b91505092959194509250565b600081519050919050565b600082825260208201905092915050565b6000819050602082019050919050565b611c7081611896565b82525050565b600082825260208201905092915050565b6000611c9282611908565b611c9c8185611c76565b9350611cac818560208601611924565b611cb581611957565b840191505092915050565b611cc9816119c1565b82525050565b611cd8816119e2565b82525050565b600060e083016000830151611cf66000860182611c67565b5060208301518482036020860152611d0e8282611c87565b9150506040830151611d236040860182611c67565b506060830151611d366060860182611cc0565b506080830151611d496080860182611c67565b5060a0830151611d5c60a0860182611c67565b5060c0830151611d6f60c0860182611ccf565b508091505092915050565b6000611d868383611cde565b905092915050565b6000602082019050919050565b6000611da682611c3b565b611db08185611c46565b935083602082028501611dc285611c57565b8060005b85811015611dfe5784840389528151611ddf8582611d7a565b9450611dea83611d8e565b925060208a01995050600181019050611dc6565b50829750879550505050505092915050565b60006020820190508181036000830152611e2a8184611d9b565b905092915050565b60008060408385031215611e4957611e4861188c565b5b6000611e5785828601611a9c565b9250506020611e68858286016118b7565b9150509250929050565b6000602082019050611e8760008301846119ee565b92915050565b600081519050919050565b600082825260208201905092915050565b6000819050602082019050919050565b611ec281611a73565b82525050565b6000611ed48383611eb9565b60208301905092915050565b6000602082019050919050565b6000611ef882611e8d565b611f028185611e98565b9350611f0d83611ea9565b8060005b83811015611f3e578151611f258882611ec8565b9750611f3083611ee0565b925050600181019050611f11565b5085935050505092915050565b60006020820190508181036000830152611f658184611eed565b905092915050565b600060208284031215611f8357611f8261188c565b5b6000611f9184828501611a9c565b91505092915050565b7f4e487b7100000000000000000000000000000000000000000000000000000000600052602260045260246000fd5b60006002820490506001821680611fe157607f821691505b60208210811415611ff557611ff4611f9a565b5b50919050565b7f596f7520617265206e6f7420616e20696e766573746f72000000000000000000600082015250565b6000612031601783611913565b915061203c82611ffb565b602082019050919050565b6000602082019050818103600083015261206081612024565b9050919050565b7f4e6f7420656e6f7567682066756e647300000000000000000000000000000000600082015250565b600061209d601083611913565b91506120a882612067565b602082019050919050565b600060208201905081810360008301526120cc81612090565b9050919050565b7f596f7520646f6e2774206861766520656e6f7567682073686172657300000000600082015250565b6000612109601c83611913565b9150612114826120d3565b602082019050919050565b60006020820190508181036000830152612138816120fc565b9050919050565b7f4e487b7100000000000000000000000000000000000000000000000000000000600052601160045260246000fd5b600061217982611896565b915061218483611896565b9250828210156121975761219661213f565b5b828203905092915050565b60006121ad82611896565b91506121b883611896565b9250827fffffffffffffffffffffffffffffffffffffffffffffffffffffffffffffffff038211156121ed576121ec61213f565b5b828201905092915050565b7f596f7520617265206e6f742061206d616e616765720000000000000000000000600082015250565b600061222e601583611913565b9150612239826121f8565b602082019050919050565b6000602082019050818103600083015261225d81612221565b9050919050565b600061226f82611896565b915061227a83611896565b9250817fffffffffffffffffffffffffffffffffffffffffffffffffffffffffffffffff04831182151516156122b3576122b261213f565b5b828202905092915050565b7f4e487b7100000000000000000000000000000000000000000000000000000000600052601260045260246000fd5b60006122f882611896565b915061230383611896565b925082612313576123126122be565b5b828204905092915050565b7f4d616a6f7269747920646f6573206e6f7420737570706f727400000000000000600082015250565b6000612354601983611913565b915061235f8261231e565b602082019050919050565b6000602082019050818103600083015261238381612347565b9050919050565b7f436f6e747269627574696f6e2054696d6520456e646564000000000000000000600082015250565b60006123c0601783611913565b91506123cb8261238a565b602082019050919050565b600060208201905081810360008301526123ef816123b3565b9050919050565b7f53656e64206d6f7265207468616e203020657468657200000000000000000000600082015250565b600061242c601683611913565b9150612437826123f6565b602082019050919050565b6000602082019050818103600083015261245b8161241f565b9050919050565b600061246d82611896565b91507fffffffffffffffffffffffffffffffffffffffffffffffffffffffffffffffff8214156124a05761249f61213f565b5b600182019050919050565b7f4e487b7100000000000000000000000000000000000000000000000000000000600052604160045260246000fd5b7f4e487b7100000000000000000000000000000000000000000000000000000000600052603260045260246000fd5b7f596f75206861766520616c726561647920766f74656420666f7220746869732060008201527f70726f706f73616c000000000000000000000000000000000000000000000000602082015250565b6000612565602883611913565b915061257082612509565b604082019050919050565b6000602082019050818103600083015261259481612558565b9050919050565b7f566f74696e672054696d6520456e646564000000000000000000000000000000600082015250565b60006125d1601183611913565b91506125dc8261259b565b602082019050919050565b60006020820190508181036000830152612600816125c4565b9050919050565b7f497420697320616c726561647920657865637574656400000000000000000000600082015250565b600061263d601683611913565b915061264882612607565b602082019050919050565b6000602082019050818103600083015261266c81612630565b905091905056fea26469706673582212209c2f4ed967addbc9282c11f4f5674fbdf3ab94ced2546c7285757de7ae6a448d64736f6c634300080b0033",
  "immutableReferences": {},
  "source": "// SPDX-License-Identifier: GPL-3.0\n\npragma solidity >=0.7.0 <0.9.0;\n\ncontract DAO {\n    struct Proposal {\n        uint id;\n        string description;\n        uint amount;\n        address payable receipient;\n        uint votes;\n        uint end;\n        bool isExecuted;\n    }\n\n    mapping(address => bool) private isInvestor;\n    mapping(address => uint) public numOfshares;\n    mapping(address => mapping(uint => bool)) public isVoted;\n    address[] public investorsList;\n    mapping(uint => Proposal) public proposals;\n    uint public totalShares;\n    uint public availableFunds;\n    uint public contributionTimeEnd;\n    uint public nextProposalId;\n    uint public voteTime;\n    uint public quorum;\n    address public manager;\n\n    //value passed using truffle migration file\n    constructor(uint _contributionTimeEnd, uint _voteTime, uint _quorum) {\n        require(_quorum > 0 && _quorum < 100, \"Not valid values\");\n        contributionTimeEnd = block.timestamp + _contributionTimeEnd; //16342343342 + 2*3600\n        voteTime = _voteTime;\n        quorum = _quorum;\n        manager = msg.sender;\n    }\n\n    modifier onlyInvestor() {\n        require(isInvestor[msg.sender] == true, \"You are not an investor\");\n        _;\n    }\n    modifier onlyManager() {\n        require(manager == msg.sender, \"You are not a manager\");\n        _;\n    }\n\n    function contribution() public payable {\n        require(\n            contributionTimeEnd >= block.timestamp,\n            \"Contribution Time Ended\"\n        ); //5 PM , //16342343342 + 2*3600 > 16342340000\n        require(msg.value > 0, \"Send more than 0 ether\");\n        isInvestor[msg.sender] = true;\n        numOfshares[msg.sender] = numOfshares[msg.sender] + msg.value;\n        totalShares += msg.value; //totaltShares=totalShares+msg.value\n        availableFunds += msg.value;\n        investorsList.push(msg.sender);\n    }\n\n    function reedemShare(uint amount) public onlyInvestor {\n        require(\n            numOfshares[msg.sender] >= amount,\n            \"You don't have enough shares\"\n        );\n        require(availableFunds >= amount, \"Not enough funds\");\n        numOfshares[msg.sender] -= amount;\n        if (numOfshares[msg.sender] == 0) {\n            isInvestor[msg.sender] = false;\n        }\n        availableFunds -= amount;\n        payable(msg.sender).transfer(amount); //transferring of ether\n    }\n\n    //investor's address share will get transfered \"to\" address\n\n    function transferShare(uint amount, address to) public onlyInvestor {\n        require(availableFunds >= amount, \"Not enough funds\");\n        require(\n            numOfshares[msg.sender] >= amount,\n            \"You don't have enough shares\"\n        );\n        numOfshares[msg.sender] -= amount;\n        if (numOfshares[msg.sender] == 0) {\n            isInvestor[msg.sender] = false;\n        }\n        numOfshares[to] += amount;\n        isInvestor[to] = true;\n        investorsList.push(to);\n    }\n\n    function createProposal(\n        string calldata description,\n        uint amount,\n        address payable receipient\n    ) public onlyManager {\n        require(availableFunds >= amount, \"Not enough funds\");\n        proposals[nextProposalId] = Proposal(\n            nextProposalId,\n            description,\n            amount,\n            receipient,\n            0,\n            block.timestamp + voteTime,\n            false\n        );\n        nextProposalId++;\n    }\n\n    function voteProposal(uint proposalId) public onlyInvestor {\n        Proposal storage proposal = proposals[proposalId];\n        require(\n            isVoted[msg.sender][proposalId] == false,\n            \"You have already voted for this proposal\"\n        );\n        require(proposal.end >= block.timestamp, \"Voting Time Ended\");\n        require(proposal.isExecuted == false, \"It is already executed\");\n        isVoted[msg.sender][proposalId] = true;\n        proposal.votes += numOfshares[msg.sender]; //proposal.votes=proposal.votes+numOfshares[msg.sender]\n    }\n\n    function executeProposal(uint proposalId) public onlyManager {\n        Proposal storage proposal = proposals[proposalId];\n        require(\n            ((proposal.votes * 100) / totalShares) >= quorum,\n            \"Majority does not support\"\n        );\n        proposal.isExecuted = true;\n        availableFunds -= proposal.amount;\n        _transfer(proposal.amount, proposal.receipient);\n    }\n\n    function _transfer(uint amount, address payable receipient) private {\n        receipient.transfer(amount);\n    }\n\n    function ProposalList() public view returns (Proposal[] memory) {\n        Proposal[] memory arr = new Proposal[](nextProposalId); //empty array of length=nextProposalId-1\n        for (uint i = 0; i < nextProposalId; i++) {\n            arr[i] = proposals[i];\n        }\n        return arr;\n    }\n\n    function InvestorList() public view returns (address[] memory) {\n        return investorsList;\n    }\n}\n",
  "sourcePath": "D:\\ROSPL project\\DAO\\contracts\\dao.sol",
  "compiler": {
    "name": "solc",
    "version": "0.8.11+commit.d7f03943.Emscripten.clang"
  },
  "schemaVersion": "3.4.16",
  "updatedAt": "2023-10-20T15:53:02.407Z",
  "networkType": "ethereum",
  "devdoc": {
    "kind": "dev",
    "methods": {},
    "version": 1
  },
  "userdoc": {
    "kind": "user",
    "methods": {},
    "version": 1
  }
}